{
  "contractName": "PollHelper",
  "abi": [
    {
      "anonymous": false,
      "inputs": [
        {
          "indexed": false,
          "internalType": "uint256",
          "name": "_pollId",
          "type": "uint256"
        },
        {
          "indexed": false,
          "internalType": "string",
          "name": "_title",
          "type": "string"
        },
        {
          "indexed": false,
          "internalType": "string[]",
          "name": "_options",
          "type": "string[]"
        },
        {
          "indexed": false,
          "internalType": "uint256",
          "name": "_expireDate",
          "type": "uint256"
        },
        {
          "indexed": false,
          "internalType": "uint256",
          "name": "_insertionDate",
          "type": "uint256"
        }
      ],
      "name": "NewPoll",
      "type": "event"
    },
    {
      "anonymous": false,
      "inputs": [
        {
          "indexed": true,
          "internalType": "uint256",
          "name": "_pollId",
          "type": "uint256"
        },
        {
          "indexed": false,
          "internalType": "uint8",
          "name": "_option",
          "type": "uint8"
        }
      ],
      "name": "NewVote",
      "type": "event"
    },
    {
      "anonymous": false,
      "inputs": [
        {
          "indexed": true,
          "internalType": "address",
          "name": "oldOwner",
          "type": "address"
        },
        {
          "indexed": true,
          "internalType": "address",
          "name": "newOwner",
          "type": "address"
        }
      ],
      "name": "OwnerSet",
      "type": "event"
    },
    {
      "inputs": [],
      "name": "MaxPollsPerAddress",
      "outputs": [
        {
          "internalType": "uint8",
          "name": "",
          "type": "uint8"
        }
      ],
      "stateMutability": "view",
      "type": "function"
    },
    {
      "inputs": [
        {
          "internalType": "uint256",
          "name": "",
          "type": "uint256"
        }
      ],
      "name": "Polls",
      "outputs": [
        {
          "internalType": "address",
          "name": "Owner",
          "type": "address"
        },
        {
          "internalType": "string",
          "name": "Title",
          "type": "string"
        },
        {
          "internalType": "uint256",
          "name": "ExpireDate",
          "type": "uint256"
        },
        {
          "internalType": "uint256",
          "name": "InsertionDate",
          "type": "uint256"
        },
        {
          "internalType": "uint256",
          "name": "VotesCount",
          "type": "uint256"
        }
      ],
      "stateMutability": "view",
      "type": "function"
    },
    {
      "inputs": [],
      "name": "TotalVotes",
      "outputs": [
        {
          "internalType": "uint256",
          "name": "",
          "type": "uint256"
        }
      ],
      "stateMutability": "view",
      "type": "function"
    },
    {
      "inputs": [
        {
          "internalType": "address",
          "name": "",
          "type": "address"
        }
      ],
      "name": "addressToPollCount",
      "outputs": [
        {
          "internalType": "uint8",
          "name": "",
          "type": "uint8"
        }
      ],
      "stateMutability": "view",
      "type": "function"
    },
    {
      "inputs": [
        {
          "internalType": "address",
          "name": "newOwner",
          "type": "address"
        }
      ],
      "name": "changeOwner",
      "outputs": [],
      "stateMutability": "nonpayable",
      "type": "function"
    },
    {
      "inputs": [],
      "name": "getOwner",
      "outputs": [
        {
          "internalType": "address",
          "name": "",
          "type": "address"
        }
      ],
      "stateMutability": "view",
      "type": "function"
    },
    {
      "inputs": [
        {
          "internalType": "uint256",
          "name": "",
          "type": "uint256"
        },
        {
          "internalType": "uint256",
          "name": "",
          "type": "uint256"
        }
      ],
      "name": "pollIdToVotes",
      "outputs": [
        {
          "internalType": "address",
          "name": "Voter",
          "type": "address"
        },
        {
          "internalType": "uint8",
          "name": "Opinion",
          "type": "uint8"
        },
        {
          "internalType": "uint256",
          "name": "Date",
          "type": "uint256"
        }
      ],
      "stateMutability": "view",
      "type": "function"
    }
  ],
  "bytecode": "0x6080604052605a600260006101000a81548160ff021916908360ff1602179055506005600260016101000a81548160ff021916908360ff16021790555060206002806101000a81548160ff021916908360ff16021790555034801561006357600080fd5b50336000806101000a81548173ffffffffffffffffffffffffffffffffffffffff021916908373ffffffffffffffffffffffffffffffffffffffff16021790555060008054906101000a900473ffffffffffffffffffffffffffffffffffffffff1673ffffffffffffffffffffffffffffffffffffffff16600073ffffffffffffffffffffffffffffffffffffffff167f342827c97908e5e2f71151c08502a66d44b6f758e3ac2f1de95f02eb95f0a73560405160405180910390a36108888061012e6000396000f3fe608060405234801561001057600080fd5b506004361061007d5760003560e01c8063893d20e81161005b578063893d20e81461010457806398c400ef14610122578063a6f9dae114610140578063adc7796d1461015c5761007d565b806309aaf0581461008257806316003f8f146100b65780632fd73f02146100e6575b600080fd5b61009c600480360381019061009791906104d8565b61018e565b6040516100ad9594939291906105ee565b60405180910390f35b6100d060048036038101906100cb9190610674565b61027c565b6040516100dd91906106bd565b60405180910390f35b6100ee61029c565b6040516100fb91906106d8565b60405180910390f35b61010c6102a2565b60405161011991906106f3565b60405180910390f35b61012a6102cb565b60405161013791906106bd565b60405180910390f35b61015a60048036038101906101559190610674565b6102de565b005b6101766004803603810190610171919061070e565b610429565b6040516101859392919061074e565b60405180910390f35b6005818154811061019e57600080fd5b90600052602060002090600602016000915090508060000160009054906101000a900473ffffffffffffffffffffffffffffffffffffffff16908060010180546101e7906107b4565b80601f0160208091040260200160405190810160405280929190818152602001828054610213906107b4565b80156102605780601f1061023557610100808354040283529160200191610260565b820191906000526020600020905b81548152906001019060200180831161024357829003601f168201915b5050505050908060030154908060040154908060050154905085565b60036020528060005260406000206000915054906101000a900460ff1681565b60015481565b60008060009054906101000a900473ffffffffffffffffffffffffffffffffffffffff16905090565b600260019054906101000a900460ff1681565b60008054906101000a900473ffffffffffffffffffffffffffffffffffffffff1673ffffffffffffffffffffffffffffffffffffffff163373ffffffffffffffffffffffffffffffffffffffff161461036c576040517f08c379a000000000000000000000000000000000000000000000000000000000815260040161036390610832565b60405180910390fd5b8073ffffffffffffffffffffffffffffffffffffffff1660008054906101000a900473ffffffffffffffffffffffffffffffffffffffff1673ffffffffffffffffffffffffffffffffffffffff167f342827c97908e5e2f71151c08502a66d44b6f758e3ac2f1de95f02eb95f0a73560405160405180910390a3806000806101000a81548173ffffffffffffffffffffffffffffffffffffffff021916908373ffffffffffffffffffffffffffffffffffffffff16021790555050565b6004602052816000526040600020818154811061044557600080fd5b9060005260206000209060020201600091509150508060000160009054906101000a900473ffffffffffffffffffffffffffffffffffffffff16908060000160149054906101000a900460ff16908060010154905083565b600080fd5b6000819050919050565b6104b5816104a2565b81146104c057600080fd5b50565b6000813590506104d2816104ac565b92915050565b6000602082840312156104ee576104ed61049d565b5b60006104fc848285016104c3565b91505092915050565b600073ffffffffffffffffffffffffffffffffffffffff82169050919050565b600061053082610505565b9050919050565b61054081610525565b82525050565b600081519050919050565b600082825260208201905092915050565b60005b83811015610580578082015181840152602081019050610565565b8381111561058f576000848401525b50505050565b6000601f19601f8301169050919050565b60006105b182610546565b6105bb8185610551565b93506105cb818560208601610562565b6105d481610595565b840191505092915050565b6105e8816104a2565b82525050565b600060a0820190506106036000830188610537565b818103602083015261061581876105a6565b905061062460408301866105df565b61063160608301856105df565b61063e60808301846105df565b9695505050505050565b61065181610525565b811461065c57600080fd5b50565b60008135905061066e81610648565b92915050565b60006020828403121561068a5761068961049d565b5b60006106988482850161065f565b91505092915050565b600060ff82169050919050565b6106b7816106a1565b82525050565b60006020820190506106d260008301846106ae565b92915050565b60006020820190506106ed60008301846105df565b92915050565b60006020820190506107086000830184610537565b92915050565b600080604083850312156107255761072461049d565b5b6000610733858286016104c3565b9250506020610744858286016104c3565b9150509250929050565b60006060820190506107636000830186610537565b61077060208301856106ae565b61077d60408301846105df565b949350505050565b7f4e487b7100000000000000000000000000000000000000000000000000000000600052602260045260246000fd5b600060028204905060018216806107cc57607f821691505b602082108114156107e0576107df610785565b5b50919050565b7f43616c6c6572206973206e6f74206f776e657200000000000000000000000000600082015250565b600061081c601383610551565b9150610827826107e6565b602082019050919050565b6000602082019050818103600083015261084b8161080f565b905091905056fea26469706673582212209ddcef96262771dc91ed2551dd05103426712481d2cb668fca84919d66c3aa8f64736f6c634300080c0033",
  "immutableReferences": {},
  "source": "// SPDX-License-Identifier: MIT\r\npragma solidity >=0.4.22 <0.9.0;\r\n\r\nimport \"./Owner.sol\";\r\nimport \"./SafeMath.sol\";\r\n\r\ncontract PollHelper is Owner {\r\n    struct Vote {\r\n        address Voter;\r\n        uint8 Opinion;\r\n        uint256 Date;\r\n    }\r\n\r\n    struct Poll {\r\n        address Owner;\r\n        string Title;\r\n        string[] Options;\r\n        uint256 ExpireDate;\r\n        uint256 InsertionDate;\r\n        uint256 VotesCount;\r\n    }\r\n\r\n    using SafeMath for uint256;\r\n\r\n    uint256 public TotalVotes;\r\n\r\n    uint8 internal ExpireAfter = 90;\r\n    uint8 public MaxPollsPerAddress = 5;\r\n    uint8 internal MaxPollOptions = 32;\r\n\r\n    mapping(address => uint8) public addressToPollCount;\r\n    mapping(uint256 => Vote[]) public pollIdToVotes;\r\n\r\n    Poll[] public Polls;\r\n\r\n    // Looping over Votes of a specific poll to see if we can find someone with the same address.\r\n    function _isVoted(address _voter, uint256 _pollId)\r\n        private\r\n        view\r\n        returns (bool)\r\n    {\r\n        bool _res = false;\r\n        uint256 _pollVotesCount = pollIdToVotes[_pollId].length;\r\n        if (_pollVotesCount == 0) return _res;\r\n        Vote[] memory _pollVotes = pollIdToVotes[_pollId];\r\n\r\n        for (uint256 i = 0; i < _pollVotesCount; i++) {\r\n            if (_pollVotes[i].Voter == _voter) _res = true;\r\n        }\r\n        return _res;\r\n    }\r\n\r\n    function isStringEmpty(string memory _input) internal pure returns (bool) {\r\n        bytes memory b = bytes(_input);\r\n        if (b.length == 0) return true;\r\n        else return false;\r\n    }\r\n\r\n    function compareStrings(string memory a, string memory b)\r\n        internal\r\n        pure\r\n        returns (bool)\r\n    {\r\n        return (keccak256(abi.encodePacked((a))) ==\r\n            keccak256(abi.encodePacked((b))));\r\n    }\r\n\r\n    // This modifier will prevent someone(address) from voting twice.\r\n    modifier voteOnce(uint256 _pollId) {\r\n        require(\r\n            !_isVoted(msg.sender, _pollId),\r\n            \"You have already voted for this poll!\"\r\n        );\r\n        _;\r\n    }\r\n\r\n    modifier pollLimit() {\r\n        require(\r\n            addressToPollCount[msg.sender] < MaxPollsPerAddress,\r\n            \"You have reached max poll per address!\"\r\n        );\r\n        _;\r\n    }\r\n\r\n    // function _isOptionValid(uint256 _option) private view returns (bool) {\r\n    //     return (_option >= 0 && _option <= MaxPollOptions);\r\n    // }\r\n\r\n    modifier validatePollId(uint256 _pollId) {\r\n        require(_pollId < Polls.length, \"Invalid PollId :/\");\r\n        require(\r\n            Polls[_pollId].ExpireDate <\r\n                block.timestamp * (ExpireAfter * 1 days),\r\n            \"Poll Is Expired :(\"\r\n        );\r\n        _;\r\n    }\r\n\r\n    modifier validateOption(uint256 _pollId, uint256 _option) {\r\n        uint256 pollLength = Polls[_pollId].Options.length;\r\n        require(_option >= 0 && _option <= pollLength, \"Invalid Option :(\");\r\n        _;\r\n    }\r\n\r\n    event NewPoll(\r\n        uint256 _pollId,\r\n        string _title,\r\n        string[] _options,\r\n        uint256 _expireDate,\r\n        uint256 _insertionDate\r\n    );\r\n\r\n    event NewVote(uint256 indexed _pollId, uint8 _option);\r\n}\r\n",
  "sourcePath": "D:\\Dev\\GitHub\\yt-deapp-poll-station-test\\backend\\contracts\\PollHelper.sol",
  "compiler": {
    "name": "solc",
    "version": "0.8.12+commit.f00d7308.Emscripten.clang"
  },
  "schemaVersion": "3.4.6",
  "updatedAt": "2022-04-02T12:12:10.585Z",
  "devdoc": {
    "kind": "dev",
    "methods": {
      "changeOwner(address)": {
        "details": "Change owner",
        "params": {
          "newOwner": "address of new owner"
        }
      },
      "getOwner()": {
        "details": "Return owner address ",
        "returns": {
          "_0": "address of owner"
        }
      }
    },
    "version": 1
  },
  "userdoc": {
    "kind": "user",
    "methods": {},
    "version": 1
  }
}