{
  "contractName": "PollStation",
  "abi": [
    {
      "anonymous": false,
      "inputs": [
        {
          "indexed": false,
          "internalType": "uint256",
          "name": "_pollId",
          "type": "uint256"
        },
        {
          "indexed": false,
          "internalType": "string",
          "name": "_title",
          "type": "string"
        },
        {
          "indexed": false,
          "internalType": "string[]",
          "name": "_options",
          "type": "string[]"
        },
        {
          "indexed": false,
          "internalType": "uint256",
          "name": "_expireDate",
          "type": "uint256"
        },
        {
          "indexed": false,
          "internalType": "uint256",
          "name": "_insertionDate",
          "type": "uint256"
        }
      ],
      "name": "NewPoll",
      "type": "event"
    },
    {
      "anonymous": false,
      "inputs": [
        {
          "indexed": true,
          "internalType": "uint256",
          "name": "_pollId",
          "type": "uint256"
        },
        {
          "indexed": false,
          "internalType": "uint8",
          "name": "_option",
          "type": "uint8"
        }
      ],
      "name": "NewVote",
      "type": "event"
    },
    {
      "anonymous": false,
      "inputs": [
        {
          "indexed": true,
          "internalType": "address",
          "name": "oldOwner",
          "type": "address"
        },
        {
          "indexed": true,
          "internalType": "address",
          "name": "newOwner",
          "type": "address"
        }
      ],
      "name": "OwnerSet",
      "type": "event"
    },
    {
      "inputs": [],
      "name": "MaxPollsPerAddress",
      "outputs": [
        {
          "internalType": "uint8",
          "name": "",
          "type": "uint8"
        }
      ],
      "stateMutability": "view",
      "type": "function",
      "constant": true
    },
    {
      "inputs": [
        {
          "internalType": "uint256",
          "name": "",
          "type": "uint256"
        }
      ],
      "name": "Polls",
      "outputs": [
        {
          "internalType": "address",
          "name": "Owner",
          "type": "address"
        },
        {
          "internalType": "string",
          "name": "Title",
          "type": "string"
        },
        {
          "internalType": "uint256",
          "name": "ExpireDate",
          "type": "uint256"
        },
        {
          "internalType": "uint256",
          "name": "InsertionDate",
          "type": "uint256"
        },
        {
          "internalType": "uint256",
          "name": "VotesCount",
          "type": "uint256"
        }
      ],
      "stateMutability": "view",
      "type": "function",
      "constant": true
    },
    {
      "inputs": [],
      "name": "TotalVotes",
      "outputs": [
        {
          "internalType": "uint256",
          "name": "",
          "type": "uint256"
        }
      ],
      "stateMutability": "view",
      "type": "function",
      "constant": true
    },
    {
      "inputs": [
        {
          "internalType": "address",
          "name": "",
          "type": "address"
        }
      ],
      "name": "addressToPollCount",
      "outputs": [
        {
          "internalType": "uint8",
          "name": "",
          "type": "uint8"
        }
      ],
      "stateMutability": "view",
      "type": "function",
      "constant": true
    },
    {
      "inputs": [
        {
          "internalType": "address",
          "name": "newOwner",
          "type": "address"
        }
      ],
      "name": "changeOwner",
      "outputs": [],
      "stateMutability": "nonpayable",
      "type": "function"
    },
    {
      "inputs": [],
      "name": "getOwner",
      "outputs": [
        {
          "internalType": "address",
          "name": "",
          "type": "address"
        }
      ],
      "stateMutability": "view",
      "type": "function",
      "constant": true
    },
    {
      "inputs": [
        {
          "internalType": "uint256",
          "name": "",
          "type": "uint256"
        },
        {
          "internalType": "uint256",
          "name": "",
          "type": "uint256"
        }
      ],
      "name": "pollIdToVotes",
      "outputs": [
        {
          "internalType": "address",
          "name": "Voter",
          "type": "address"
        },
        {
          "internalType": "uint8",
          "name": "Opinion",
          "type": "uint8"
        },
        {
          "internalType": "uint256",
          "name": "Date",
          "type": "uint256"
        }
      ],
      "stateMutability": "view",
      "type": "function",
      "constant": true
    },
    {
      "inputs": [
        {
          "internalType": "string",
          "name": "_title",
          "type": "string"
        },
        {
          "internalType": "string[]",
          "name": "_options",
          "type": "string[]"
        }
      ],
      "name": "createPoll",
      "outputs": [],
      "stateMutability": "payable",
      "type": "function",
      "payable": true
    },
    {
      "inputs": [
        {
          "internalType": "uint256",
          "name": "_pollId",
          "type": "uint256"
        },
        {
          "internalType": "uint8",
          "name": "_option",
          "type": "uint8"
        }
      ],
      "name": "vote",
      "outputs": [],
      "stateMutability": "payable",
      "type": "function",
      "payable": true
    },
    {
      "inputs": [],
      "name": "getPolls",
      "outputs": [
        {
          "components": [
            {
              "internalType": "address",
              "name": "Owner",
              "type": "address"
            },
            {
              "internalType": "string",
              "name": "Title",
              "type": "string"
            },
            {
              "internalType": "string[]",
              "name": "Options",
              "type": "string[]"
            },
            {
              "internalType": "uint256",
              "name": "ExpireDate",
              "type": "uint256"
            },
            {
              "internalType": "uint256",
              "name": "InsertionDate",
              "type": "uint256"
            },
            {
              "internalType": "uint256",
              "name": "VotesCount",
              "type": "uint256"
            }
          ],
          "internalType": "struct PollHelper.Poll[]",
          "name": "",
          "type": "tuple[]"
        }
      ],
      "stateMutability": "view",
      "type": "function",
      "constant": true
    },
    {
      "inputs": [
        {
          "internalType": "uint256",
          "name": "_pollId",
          "type": "uint256"
        }
      ],
      "name": "getPollVotes",
      "outputs": [
        {
          "components": [
            {
              "internalType": "address",
              "name": "Voter",
              "type": "address"
            },
            {
              "internalType": "uint8",
              "name": "Opinion",
              "type": "uint8"
            },
            {
              "internalType": "uint256",
              "name": "Date",
              "type": "uint256"
            }
          ],
          "internalType": "struct PollHelper.Vote[]",
          "name": "",
          "type": "tuple[]"
        }
      ],
      "stateMutability": "view",
      "type": "function",
      "constant": true
    },
    {
      "inputs": [
        {
          "internalType": "uint256",
          "name": "_pollId",
          "type": "uint256"
        }
      ],
      "name": "getPoll",
      "outputs": [
        {
          "components": [
            {
              "internalType": "address",
              "name": "Owner",
              "type": "address"
            },
            {
              "internalType": "string",
              "name": "Title",
              "type": "string"
            },
            {
              "internalType": "string[]",
              "name": "Options",
              "type": "string[]"
            },
            {
              "internalType": "uint256",
              "name": "ExpireDate",
              "type": "uint256"
            },
            {
              "internalType": "uint256",
              "name": "InsertionDate",
              "type": "uint256"
            },
            {
              "internalType": "uint256",
              "name": "VotesCount",
              "type": "uint256"
            }
          ],
          "internalType": "struct PollHelper.Poll",
          "name": "",
          "type": "tuple"
        }
      ],
      "stateMutability": "view",
      "type": "function",
      "constant": true
    },
    {
      "inputs": [
        {
          "internalType": "uint256",
          "name": "_pollId",
          "type": "uint256"
        }
      ],
      "name": "hasVoted",
      "outputs": [
        {
          "internalType": "bool",
          "name": "",
          "type": "bool"
        },
        {
          "internalType": "int8",
          "name": "",
          "type": "int8"
        }
      ],
      "stateMutability": "view",
      "type": "function",
      "constant": true
    }
  ],
  "bytecode": "0x6080604052605a600260006101000a81548160ff021916908360ff1602179055506005600260016101000a81548160ff021916908360ff16021790555060206002806101000a81548160ff021916908360ff16021790555034801561006357600080fd5b50336000806101000a81548173ffffffffffffffffffffffffffffffffffffffff021916908373ffffffffffffffffffffffffffffffffffffffff16021790555060008054906101000a900473ffffffffffffffffffffffffffffffffffffffff1673ffffffffffffffffffffffffffffffffffffffff16600073ffffffffffffffffffffffffffffffffffffffff167f342827c97908e5e2f71151c08502a66d44b6f758e3ac2f1de95f02eb95f0a73560405160405180910390a3612ba98061012e6000396000f3fe6080604052600436106100c25760003560e01c8063893d20e81161007f578063a6f9dae111610059578063a6f9dae114610266578063adc7796d1461028f578063bbff7166146102ce578063ecca031f1461030b576100c2565b8063893d20e8146101f4578063943e82161461021f57806398c400ef1461023b576100c2565b806309aaf058146100c7578063120fe89b1461010857806316003f8f146101335780631a8cbcaa146101705780632fd73f02146101ad5780637e3d71c3146101d8575b600080fd5b3480156100d357600080fd5b506100ee60048036038101906100e991906119da565b610349565b6040516100ff959493929190611af0565b60405180910390f35b34801561011457600080fd5b5061011d610437565b60405161012a9190611dc6565b60405180910390f35b34801561013f57600080fd5b5061015a60048036038101906101559190611e14565b610675565b6040516101679190611e5d565b60405180910390f35b34801561017c57600080fd5b50610197600480360381019061019291906119da565b610695565b6040516101a49190611f08565b60405180910390f35b3480156101b957600080fd5b506101c2610990565b6040516101cf9190611f2a565b60405180910390f35b6101f260048036038101906101ed9190612160565b610996565b005b34801561020057600080fd5b50610209610d29565b60405161021691906121d8565b60405180910390f35b6102396004803603810190610234919061221f565b610d52565b005b34801561024757600080fd5b506102506110a6565b60405161025d9190611e5d565b60405180910390f35b34801561027257600080fd5b5061028d60048036038101906102889190611e14565b6110b9565b005b34801561029b57600080fd5b506102b660048036038101906102b1919061225f565b611204565b6040516102c59392919061229f565b60405180910390f35b3480156102da57600080fd5b506102f560048036038101906102f091906119da565b611278565b60405161030291906123d6565b60405180910390f35b34801561031757600080fd5b50610332600480360381019061032d91906119da565b611447565b60405161034092919061242f565b60405180910390f35b6005818154811061035957600080fd5b90600052602060002090600602016000915090508060000160009054906101000a900473ffffffffffffffffffffffffffffffffffffffff16908060010180546103a290612487565b80601f01602080910402602001604051908101604052809291908181526020018280546103ce90612487565b801561041b5780601f106103f05761010080835404028352916020019161041b565b820191906000526020600020905b8154815290600101906020018083116103fe57829003601f168201915b5050505050908060030154908060040154908060050154905085565b60606005805480602002602001604051908101604052809291908181526020016000905b8282101561066c57838290600052602060002090600602016040518060c00160405290816000820160009054906101000a900473ffffffffffffffffffffffffffffffffffffffff1673ffffffffffffffffffffffffffffffffffffffff1673ffffffffffffffffffffffffffffffffffffffff1681526020016001820180546104e490612487565b80601f016020809104026020016040519081016040528092919081815260200182805461051090612487565b801561055d5780601f106105325761010080835404028352916020019161055d565b820191906000526020600020905b81548152906001019060200180831161054057829003601f168201915b5050505050815260200160028201805480602002602001604051908101604052809291908181526020016000905b828210156106375783829060005260206000200180546105aa90612487565b80601f01602080910402602001604051908101604052809291908181526020018280546105d690612487565b80156106235780601f106105f857610100808354040283529160200191610623565b820191906000526020600020905b81548152906001019060200180831161060657829003601f168201915b50505050508152602001906001019061058b565b50505050815260200160038201548152602001600482015481526020016005820154815250508152602001906001019061045b565b50505050905090565b60036020528060005260406000206000915054906101000a900460ff1681565b61069d6117dd565b8160058054905081106106e5576040517f08c379a00000000000000000000000000000000000000000000000000000000081526004016106dc90612505565b60405180910390fd5b62015180600260009054906101000a900460ff1660ff166107069190612563565b62ffffff164261071691906125a0565b6005828154811061072a576107296125fa565b5b9060005260206000209060060201600301541061077c576040517f08c379a000000000000000000000000000000000000000000000000000000000815260040161077390612675565b60405180910390fd5b600583815481106107905761078f6125fa565b5b90600052602060002090600602016040518060c00160405290816000820160009054906101000a900473ffffffffffffffffffffffffffffffffffffffff1673ffffffffffffffffffffffffffffffffffffffff1673ffffffffffffffffffffffffffffffffffffffff16815260200160018201805461080f90612487565b80601f016020809104026020016040519081016040528092919081815260200182805461083b90612487565b80156108885780601f1061085d57610100808354040283529160200191610888565b820191906000526020600020905b81548152906001019060200180831161086b57829003601f168201915b5050505050815260200160028201805480602002602001604051908101604052809291908181526020016000905b828210156109625783829060005260206000200180546108d590612487565b80601f016020809104026020016040519081016040528092919081815260200182805461090190612487565b801561094e5780601f106109235761010080835404028352916020019161094e565b820191906000526020600020905b81548152906001019060200180831161093157829003601f168201915b5050505050815260200190600101906108b6565b5050505081526020016003820154815260200160048201548152602001600582015481525050915050919050565b60015481565b600260019054906101000a900460ff1660ff16600360003373ffffffffffffffffffffffffffffffffffffffff1673ffffffffffffffffffffffffffffffffffffffff16815260200190815260200160002060009054906101000a900460ff1660ff1610610a39576040517f08c379a0000000000000000000000000000000000000000000000000000000008152600401610a3090612707565b60405180910390fd5b610a4282611600565b15610a82576040517f08c379a0000000000000000000000000000000000000000000000000000000008152600401610a7990612773565b60405180910390fd5b6003815110158015610aa5575060028054906101000a900460ff1660ff16815111155b610ae4576040517f08c379a0000000000000000000000000000000000000000000000000000000008152600401610adb90612805565b60405180910390fd5b600042905060006040518060c001604052803373ffffffffffffffffffffffffffffffffffffffff16815260200185815260200184815260200162015180600260009054906101000a900460ff1660ff16610b3f9190612563565b62ffffff1684610b4f9190612825565b815260200183815260200160008152509050600581908060018154018082558091505060019003906000526020600020906006020160009091909190915060008201518160000160006101000a81548173ffffffffffffffffffffffffffffffffffffffff021916908373ffffffffffffffffffffffffffffffffffffffff1602179055506020820151816001019080519060200190610bf0929190611829565b506040820151816002019080519060200190610c0d9291906118af565b50606082015181600301556080820151816004015560a0820151816005015550507fd657790db061bbe3b34070f86c9a303bcea77ba90b3a4365767ddca573f008626001600580549050610c61919061287b565b858562015180600260009054906101000a900460ff1660ff16610c849190612563565b62ffffff1686610c949190612825565b86604051610ca6959493929190612935565b60405180910390a1600360003373ffffffffffffffffffffffffffffffffffffffff1673ffffffffffffffffffffffffffffffffffffffff168152602001908152602001600020600081819054906101000a900460ff1680929190610d0a90612996565b91906101000a81548160ff021916908360ff1602179055505050505050565b60008060009054906101000a900473ffffffffffffffffffffffffffffffffffffffff16905090565b81610d5d3382611625565b15610d9d576040517f08c379a0000000000000000000000000000000000000000000000000000000008152600401610d9490612a32565b60405180910390fd5b826005805490508110610de5576040517f08c379a0000000000000000000000000000000000000000000000000000000008152600401610ddc90612505565b60405180910390fd5b62015180600260009054906101000a900460ff1660ff16610e069190612563565b62ffffff1642610e1691906125a0565b60058281548110610e2a57610e296125fa565b5b90600052602060002090600602016003015410610e7c576040517f08c379a0000000000000000000000000000000000000000000000000000000008152600401610e7390612675565b60405180910390fd5b838360ff16600060058381548110610e9757610e966125fa565b5b906000526020600020906006020160020180549050905060008210158015610ebf5750808211155b610efe576040517f08c379a0000000000000000000000000000000000000000000000000000000008152600401610ef590612a9e565b60405180910390fd5b6004600088815260200190815260200160002060405180606001604052803373ffffffffffffffffffffffffffffffffffffffff1681526020018860ff1681526020014263ffffffff16815250908060018154018082558091505060019003906000526020600020906002020160009091909190915060008201518160000160006101000a81548173ffffffffffffffffffffffffffffffffffffffff021916908373ffffffffffffffffffffffffffffffffffffffff16021790555060208201518160000160146101000a81548160ff021916908360ff160217905550604082015181600101555050611021600160058981548110611001576110006125fa565b5b9060005260206000209060060201600501546117c790919063ffffffff16565b60058881548110611035576110346125fa565b5b906000526020600020906006020160050181905550867f518ea54e6458e92745b813a5e920bb3960588399be63d2dffad965b5f8e733698760405161107a9190611e5d565b60405180910390a2611097600180546117c790919063ffffffff16565b60018190555050505050505050565b600260019054906101000a900460ff1681565b60008054906101000a900473ffffffffffffffffffffffffffffffffffffffff1673ffffffffffffffffffffffffffffffffffffffff163373ffffffffffffffffffffffffffffffffffffffff1614611147576040517f08c379a000000000000000000000000000000000000000000000000000000000815260040161113e90612b0a565b60405180910390fd5b8073ffffffffffffffffffffffffffffffffffffffff1660008054906101000a900473ffffffffffffffffffffffffffffffffffffffff1673ffffffffffffffffffffffffffffffffffffffff167f342827c97908e5e2f71151c08502a66d44b6f758e3ac2f1de95f02eb95f0a73560405160405180910390a3806000806101000a81548173ffffffffffffffffffffffffffffffffffffffff021916908373ffffffffffffffffffffffffffffffffffffffff16021790555050565b6004602052816000526040600020818154811061122057600080fd5b9060005260206000209060020201600091509150508060000160009054906101000a900473ffffffffffffffffffffffffffffffffffffffff16908060000160149054906101000a900460ff16908060010154905083565b60608160058054905081106112c2576040517f08c379a00000000000000000000000000000000000000000000000000000000081526004016112b990612505565b60405180910390fd5b62015180600260009054906101000a900460ff1660ff166112e39190612563565b62ffffff16426112f391906125a0565b60058281548110611307576113066125fa565b5b90600052602060002090600602016003015410611359576040517f08c379a000000000000000000000000000000000000000000000000000000000815260040161135090612675565b60405180910390fd5b60046000848152602001908152602001600020805480602002602001604051908101604052809291908181526020016000905b8282101561143b57838290600052602060002090600202016040518060600160405290816000820160009054906101000a900473ffffffffffffffffffffffffffffffffffffffff1673ffffffffffffffffffffffffffffffffffffffff1673ffffffffffffffffffffffffffffffffffffffff1681526020016000820160149054906101000a900460ff1660ff1660ff1681526020016001820154815250508152602001906001019061138c565b50505050915050919050565b6000806000807fffffffffffffffffffffffffffffffffffffffffffffffffffffffffffffffff9050600060046000878152602001908152602001600020805480602002602001604051908101604052809291908181526020016000905b8282101561155457838290600052602060002090600202016040518060600160405290816000820160009054906101000a900473ffffffffffffffffffffffffffffffffffffffff1673ffffffffffffffffffffffffffffffffffffffff1673ffffffffffffffffffffffffffffffffffffffff1681526020016000820160149054906101000a900460ff1660ff1660ff168152602001600182015481525050815260200190600101906114a5565b50505050905060005b81518110156115f1573373ffffffffffffffffffffffffffffffffffffffff168282815181106115905761158f6125fa565b5b60200260200101516000015173ffffffffffffffffffffffffffffffffffffffff1614156115de57600193508181815181106115cf576115ce6125fa565b5b60200260200101516020015192505b80806115e990612b2a565b91505061155d565b50828294509450505050915091565b60008082905060008151141561161a576001915050611620565b60009150505b919050565b60008060009050600060046000858152602001908152602001600020805490509050600081141561165a5781925050506117c1565b600060046000868152602001908152602001600020805480602002602001604051908101604052809291908181526020016000905b8282101561173e57838290600052602060002090600202016040518060600160405290816000820160009054906101000a900473ffffffffffffffffffffffffffffffffffffffff1673ffffffffffffffffffffffffffffffffffffffff1673ffffffffffffffffffffffffffffffffffffffff1681526020016000820160149054906101000a900460ff1660ff1660ff1681526020016001820154815250508152602001906001019061168f565b50505050905060005b828110156117b9578673ffffffffffffffffffffffffffffffffffffffff16828281518110611779576117786125fa565b5b60200260200101516000015173ffffffffffffffffffffffffffffffffffffffff1614156117a657600193505b80806117b190612b2a565b915050611747565b508293505050505b92915050565b600081836117d59190612825565b905092915050565b6040518060c00160405280600073ffffffffffffffffffffffffffffffffffffffff16815260200160608152602001606081526020016000815260200160008152602001600081525090565b82805461183590612487565b90600052602060002090601f016020900481019282611857576000855561189e565b82601f1061187057805160ff191683800117855561189e565b8280016001018555821561189e579182015b8281111561189d578251825591602001919060010190611882565b5b5090506118ab919061190f565b5090565b8280548282559060005260206000209081019282156118fe579160200282015b828111156118fd5782518290805190602001906118ed929190611829565b50916020019190600101906118cf565b5b50905061190b919061192c565b5090565b5b80821115611928576000816000905550600101611910565b5090565b5b8082111561194c57600081816119439190611950565b5060010161192d565b5090565b50805461195c90612487565b6000825580601f1061196e575061198d565b601f01602090049060005260206000209081019061198c919061190f565b5b50565b6000604051905090565b600080fd5b600080fd5b6000819050919050565b6119b7816119a4565b81146119c257600080fd5b50565b6000813590506119d4816119ae565b92915050565b6000602082840312156119f0576119ef61199a565b5b60006119fe848285016119c5565b91505092915050565b600073ffffffffffffffffffffffffffffffffffffffff82169050919050565b6000611a3282611a07565b9050919050565b611a4281611a27565b82525050565b600081519050919050565b600082825260208201905092915050565b60005b83811015611a82578082015181840152602081019050611a67565b83811115611a91576000848401525b50505050565b6000601f19601f8301169050919050565b6000611ab382611a48565b611abd8185611a53565b9350611acd818560208601611a64565b611ad681611a97565b840191505092915050565b611aea816119a4565b82525050565b600060a082019050611b056000830188611a39565b8181036020830152611b178187611aa8565b9050611b266040830186611ae1565b611b336060830185611ae1565b611b406080830184611ae1565b9695505050505050565b600081519050919050565b600082825260208201905092915050565b6000819050602082019050919050565b611b7f81611a27565b82525050565b600082825260208201905092915050565b6000611ba182611a48565b611bab8185611b85565b9350611bbb818560208601611a64565b611bc481611a97565b840191505092915050565b600081519050919050565b600082825260208201905092915050565b6000819050602082019050919050565b6000611c078383611b96565b905092915050565b6000602082019050919050565b6000611c2782611bcf565b611c318185611bda565b935083602082028501611c4385611beb565b8060005b85811015611c7f5784840389528151611c608582611bfb565b9450611c6b83611c0f565b925060208a01995050600181019050611c47565b50829750879550505050505092915050565b611c9a816119a4565b82525050565b600060c083016000830151611cb86000860182611b76565b5060208301518482036020860152611cd08282611b96565b91505060408301518482036040860152611cea8282611c1c565b9150506060830151611cff6060860182611c91565b506080830151611d126080860182611c91565b5060a0830151611d2560a0860182611c91565b508091505092915050565b6000611d3c8383611ca0565b905092915050565b6000602082019050919050565b6000611d5c82611b4a565b611d668185611b55565b935083602082028501611d7885611b66565b8060005b85811015611db45784840389528151611d958582611d30565b9450611da083611d44565b925060208a01995050600181019050611d7c565b50829750879550505050505092915050565b60006020820190508181036000830152611de08184611d51565b905092915050565b611df181611a27565b8114611dfc57600080fd5b50565b600081359050611e0e81611de8565b92915050565b600060208284031215611e2a57611e2961199a565b5b6000611e3884828501611dff565b91505092915050565b600060ff82169050919050565b611e5781611e41565b82525050565b6000602082019050611e726000830184611e4e565b92915050565b600060c083016000830151611e906000860182611b76565b5060208301518482036020860152611ea88282611b96565b91505060408301518482036040860152611ec28282611c1c565b9150506060830151611ed76060860182611c91565b506080830151611eea6080860182611c91565b5060a0830151611efd60a0860182611c91565b508091505092915050565b60006020820190508181036000830152611f228184611e78565b905092915050565b6000602082019050611f3f6000830184611ae1565b92915050565b600080fd5b600080fd5b7f4e487b7100000000000000000000000000000000000000000000000000000000600052604160045260246000fd5b611f8782611a97565b810181811067ffffffffffffffff82111715611fa657611fa5611f4f565b5b80604052505050565b6000611fb9611990565b9050611fc58282611f7e565b919050565b600067ffffffffffffffff821115611fe557611fe4611f4f565b5b611fee82611a97565b9050602081019050919050565b82818337600083830152505050565b600061201d61201884611fca565b611faf565b90508281526020810184848401111561203957612038611f4a565b5b612044848285611ffb565b509392505050565b600082601f83011261206157612060611f45565b5b813561207184826020860161200a565b91505092915050565b600067ffffffffffffffff82111561209557612094611f4f565b5b602082029050602081019050919050565b600080fd5b60006120be6120b98461207a565b611faf565b905080838252602082019050602084028301858111156120e1576120e06120a6565b5b835b8181101561212857803567ffffffffffffffff81111561210657612105611f45565b5b808601612113898261204c565b855260208501945050506020810190506120e3565b5050509392505050565b600082601f83011261214757612146611f45565b5b81356121578482602086016120ab565b91505092915050565b600080604083850312156121775761217661199a565b5b600083013567ffffffffffffffff8111156121955761219461199f565b5b6121a18582860161204c565b925050602083013567ffffffffffffffff8111156121c2576121c161199f565b5b6121ce85828601612132565b9150509250929050565b60006020820190506121ed6000830184611a39565b92915050565b6121fc81611e41565b811461220757600080fd5b50565b600081359050612219816121f3565b92915050565b600080604083850312156122365761223561199a565b5b6000612244858286016119c5565b92505060206122558582860161220a565b9150509250929050565b600080604083850312156122765761227561199a565b5b6000612284858286016119c5565b9250506020612295858286016119c5565b9150509250929050565b60006060820190506122b46000830186611a39565b6122c16020830185611e4e565b6122ce6040830184611ae1565b949350505050565b600081519050919050565b600082825260208201905092915050565b6000819050602082019050919050565b61230b81611e41565b82525050565b6060820160008201516123276000850182611b76565b50602082015161233a6020850182612302565b50604082015161234d6040850182611c91565b50505050565b600061235f8383612311565b60608301905092915050565b6000602082019050919050565b6000612383826122d6565b61238d81856122e1565b9350612398836122f2565b8060005b838110156123c95781516123b08882612353565b97506123bb8361236b565b92505060018101905061239c565b5085935050505092915050565b600060208201905081810360008301526123f08184612378565b905092915050565b60008115159050919050565b61240d816123f8565b82525050565b60008160000b9050919050565b61242981612413565b82525050565b60006040820190506124446000830185612404565b6124516020830184612420565b9392505050565b7f4e487b7100000000000000000000000000000000000000000000000000000000600052602260045260246000fd5b6000600282049050600182168061249f57607f821691505b602082108114156124b3576124b2612458565b5b50919050565b7f496e76616c696420506f6c6c4964203a2f000000000000000000000000000000600082015250565b60006124ef601183611a53565b91506124fa826124b9565b602082019050919050565b6000602082019050818103600083015261251e816124e2565b9050919050565b600062ffffff82169050919050565b7f4e487b7100000000000000000000000000000000000000000000000000000000600052601160045260246000fd5b600061256e82612525565b915061257983612525565b92508162ffffff048311821515161561259557612594612534565b5b828202905092915050565b60006125ab826119a4565b91506125b6836119a4565b9250817fffffffffffffffffffffffffffffffffffffffffffffffffffffffffffffffff04831182151516156125ef576125ee612534565b5b828202905092915050565b7f4e487b7100000000000000000000000000000000000000000000000000000000600052603260045260246000fd5b7f506f6c6c2049732045787069726564203a280000000000000000000000000000600082015250565b600061265f601283611a53565b915061266a82612629565b602082019050919050565b6000602082019050818103600083015261268e81612652565b9050919050565b7f596f7520686176652072656163686564206d617820706f6c6c2070657220616460008201527f6472657373210000000000000000000000000000000000000000000000000000602082015250565b60006126f1602683611a53565b91506126fc82612695565b604082019050919050565b60006020820190508181036000830152612720816126e4565b9050919050565b7f5469746c652063616e277420626520656d707479203a2f000000000000000000600082015250565b600061275d601783611a53565b915061276882612727565b602082019050919050565b6000602082019050818103600083015261278c81612750565b9050919050565b7f596f752063616e206f6e6c7920646566696e65203320746f203332206f70746960008201527f6f6e732100000000000000000000000000000000000000000000000000000000602082015250565b60006127ef602483611a53565b91506127fa82612793565b604082019050919050565b6000602082019050818103600083015261281e816127e2565b9050919050565b6000612830826119a4565b915061283b836119a4565b9250827fffffffffffffffffffffffffffffffffffffffffffffffffffffffffffffffff038211156128705761286f612534565b5b828201905092915050565b6000612886826119a4565b9150612891836119a4565b9250828210156128a4576128a3612534565b5b828203905092915050565b600082825260208201905092915050565b60006128cb82611bcf565b6128d581856128af565b9350836020820285016128e785611beb565b8060005b8581101561292357848403895281516129048582611bfb565b945061290f83611c0f565b925060208a019950506001810190506128eb565b50829750879550505050505092915050565b600060a08201905061294a6000830188611ae1565b818103602083015261295c8187611aa8565b9050818103604083015261297081866128c0565b905061297f6060830185611ae1565b61298c6080830184611ae1565b9695505050505050565b60006129a182611e41565b915060ff8214156129b5576129b4612534565b5b600182019050919050565b7f596f75206861766520616c726561647920766f74656420666f7220746869732060008201527f706f6c6c21000000000000000000000000000000000000000000000000000000602082015250565b6000612a1c602583611a53565b9150612a27826129c0565b604082019050919050565b60006020820190508181036000830152612a4b81612a0f565b9050919050565b7f496e76616c6964204f7074696f6e203a28000000000000000000000000000000600082015250565b6000612a88601183611a53565b9150612a9382612a52565b602082019050919050565b60006020820190508181036000830152612ab781612a7b565b9050919050565b7f43616c6c6572206973206e6f74206f776e657200000000000000000000000000600082015250565b6000612af4601383611a53565b9150612aff82612abe565b602082019050919050565b60006020820190508181036000830152612b2381612ae7565b9050919050565b6000612b35826119a4565b91507fffffffffffffffffffffffffffffffffffffffffffffffffffffffffffffffff821415612b6857612b67612534565b5b60018201905091905056fea2646970667358221220dfcac774c7c6d6244db5d6a2ccef2b9cade86c887d44fc2fef9edc6722b61d2864736f6c634300080c0033",
  "immutableReferences": {},
  "source": "// SPDX-License-Identifier: MIT\npragma solidity >=0.4.22 <0.9.0;\n\nimport \"./PollHelper.sol\";\n\ncontract PollStation is PollHelper {\n    using SafeMath for uint256;\n\n    function createPoll(string memory _title, string[] memory _options)\n        public\n        payable\n        pollLimit\n    {\n        require(!isStringEmpty(_title), \"Title can't be empty :/\");\n        require(\n            _options.length >= 3 && _options.length <= MaxPollOptions,\n            \"You can only define 3 to 32 options!\"\n        );\n\n        // push the new poll to polls list\n        uint256 time = block.timestamp;\n        Poll memory poll = Poll(\n            msg.sender,\n            _title,\n            _options,\n            time + (ExpireAfter * 1 days),\n            time,\n            0\n        );\n        Polls.push(poll);\n\n        // fires the NewPoll Event\n        emit NewPoll(\n            Polls.length - 1,\n            _title,\n            _options,\n            time + (ExpireAfter * 1 days),\n            time\n        );\n\n        //increace the poll count of the address\n        addressToPollCount[msg.sender]++;\n    }\n\n    function vote(uint256 _pollId, uint8 _option)\n        external\n        payable\n        voteOnce(_pollId)\n        validatePollId(_pollId)\n        validateOption(_pollId, _option)\n    {\n        //push the new vote to poll's vote list\n        pollIdToVotes[_pollId].push(\n            Vote(msg.sender, _option, uint32(block.timestamp))\n        );\n\n        //increase the vote count;\n        Polls[_pollId].VotesCount = Polls[_pollId].VotesCount.add(1);\n\n        // fires the NewVote Event\n        emit NewVote(_pollId, _option);\n\n        //increase the total votes\n        TotalVotes = TotalVotes.add(1);\n    }\n\n    function getPolls() external view returns (Poll[] memory) {\n        return Polls;\n    }\n\n    function getPollVotes(uint256 _pollId)\n        external\n        view\n        validatePollId(_pollId)\n        returns (Vote[] memory)\n    {\n        return pollIdToVotes[_pollId];\n    }\n\n    function getPoll(uint256 _pollId)\n        external\n        view\n        validatePollId(_pollId)\n        returns (Poll memory)\n    {\n        return Polls[_pollId];\n    }\n\n    // voteOnce(_pollId)\n    function hasVoted(uint256 _pollId) external view returns (bool, int8) {\n        bool _voted = false;\n        int8 _option = -1;\n\n        Vote[] memory voteList = pollIdToVotes[_pollId];\n        for (uint256 i = 0; i < voteList.length; i++) {\n            if (voteList[i].Voter == msg.sender) {\n                _voted = true;\n                _option = int8(voteList[i].Opinion);\n            }\n        }\n        return (_voted, _option);\n    }\n}\n",
  "sourcePath": "D:\\Dev\\GitHub\\yt-deapp-poll-station-test\\backend\\contracts\\PollStation.sol",
  "compiler": {
    "name": "solc",
    "version": "0.8.12+commit.f00d7308.Emscripten.clang"
  },
  "schemaVersion": "3.4.6",
  "updatedAt": "2022-04-02T12:13:59.977Z",
  "networkType": "ethereum",
  "devdoc": {
    "kind": "dev",
    "methods": {
      "changeOwner(address)": {
        "details": "Change owner",
        "params": {
          "newOwner": "address of new owner"
        }
      },
      "getOwner()": {
        "details": "Return owner address ",
        "returns": {
          "_0": "address of owner"
        }
      }
    },
    "version": 1
  },
  "userdoc": {
    "kind": "user",
    "methods": {},
    "version": 1
  }
}